{
  "_format": "hh3-artifact-1",
  "contractName": "ProjectFactory",
  "sourceName": "contracts/ProjectFactory.sol",
  "abi": [
    {
      "anonymous": false,
      "inputs": [
        {
          "indexed": true,
          "internalType": "address",
          "name": "client",
          "type": "address"
        },
        {
          "indexed": true,
          "internalType": "address",
          "name": "provider",
          "type": "address"
        },
        {
          "indexed": true,
          "internalType": "address",
          "name": "projectAddress",
          "type": "address"
        },
        {
          "indexed": false,
          "internalType": "uint256",
          "name": "totalAmount",
          "type": "uint256"
        }
      ],
      "name": "ProjectCreated",
      "type": "event"
    },
    {
      "inputs": [
        {
          "internalType": "address",
          "name": "_provider",
          "type": "address"
        },
        {
          "internalType": "address",
          "name": "_arbiter",
          "type": "address"
        },
        {
          "internalType": "string[]",
          "name": "_milestoneTitles",
          "type": "string[]"
        },
        {
          "internalType": "uint256[]",
          "name": "_milestoneAmounts",
          "type": "uint256[]"
        }
      ],
      "name": "createProject",
      "outputs": [
        {
          "internalType": "address",
          "name": "",
          "type": "address"
        }
      ],
      "stateMutability": "payable",
      "type": "function"
    },
    {
      "inputs": [
        {
          "internalType": "uint256",
          "name": "_index",
          "type": "uint256"
        }
      ],
      "name": "getProject",
      "outputs": [
        {
          "internalType": "address",
          "name": "",
          "type": "address"
        }
      ],
      "stateMutability": "view",
      "type": "function"
    },
    {
      "inputs": [
        {
          "internalType": "address",
          "name": "_client",
          "type": "address"
        }
      ],
      "name": "getProjectsByClient",
      "outputs": [
        {
          "internalType": "address[]",
          "name": "",
          "type": "address[]"
        }
      ],
      "stateMutability": "view",
      "type": "function"
    },
    {
      "inputs": [
        {
          "internalType": "address",
          "name": "_provider",
          "type": "address"
        }
      ],
      "name": "getProjectsByProvider",
      "outputs": [
        {
          "internalType": "address[]",
          "name": "",
          "type": "address[]"
        }
      ],
      "stateMutability": "view",
      "type": "function"
    },
    {
      "inputs": [],
      "name": "getProjectsCount",
      "outputs": [
        {
          "internalType": "uint256",
          "name": "",
          "type": "uint256"
        }
      ],
      "stateMutability": "view",
      "type": "function"
    },
    {
      "inputs": [
        {
          "internalType": "uint256",
          "name": "",
          "type": "uint256"
        }
      ],
      "name": "projects",
      "outputs": [
        {
          "internalType": "contract EscrowProject",
          "name": "",
          "type": "address"
        }
      ],
      "stateMutability": "view",
      "type": "function"
    },
    {
      "inputs": [
        {
          "internalType": "address",
          "name": "",
          "type": "address"
        },
        {
          "internalType": "uint256",
          "name": "",
          "type": "uint256"
        }
      ],
      "name": "projectsByClient",
      "outputs": [
        {
          "internalType": "address",
          "name": "",
          "type": "address"
        }
      ],
      "stateMutability": "view",
      "type": "function"
    },
    {
      "inputs": [
        {
          "internalType": "address",
          "name": "",
          "type": "address"
        },
        {
          "internalType": "uint256",
          "name": "",
          "type": "uint256"
        }
      ],
      "name": "projectsByProvider",
      "outputs": [
        {
          "internalType": "address",
          "name": "",
          "type": "address"
        }
      ],
      "stateMutability": "view",
      "type": "function"
    }
  ],
  "bytecode": "0x6080604052348015600e575f5ffd5b506129058061001c5f395ff3fe608060405260043610610079575f3560e01c8063611ad62f1161004c578063611ad62f14610123578063a876c6f914610136578063e4a8f18b14610155578063f0f3f2c814610171575f5ffd5b8063107046bd1461007d5780631314946a146100b95780634c546911146100e55780634d51fb5c14610104575b5f5ffd5b348015610088575f5ffd5b5061009c6100973660046107af565b610190565b6040516001600160a01b0390911681526020015b60405180910390f35b3480156100c4575f5ffd5b506100d86100d33660046107e1565b6101b7565b6040516100b09190610801565b3480156100f0575f5ffd5b5061009c6100ff36600461084c565b61022a565b34801561010f575f5ffd5b506100d861011e3660046107e1565b61025e565b61009c6101313660046108bc565b6102cf565b348015610141575f5ffd5b5061009c61015036600461084c565b61075c565b348015610160575f5ffd5b505f546040519081526020016100b0565b34801561017c575f5ffd5b5061009c61018b3660046107af565b610775565b5f818154811061019e575f80fd5b5f918252602090912001546001600160a01b0316905081565b6001600160a01b0381165f9081526001602090815260409182902080548351818402810184019094528084526060939283018282801561021e57602002820191905f5260205f20905b81546001600160a01b03168152600190910190602001808311610200575b50505050509050919050565b6001602052815f5260405f208181548110610243575f80fd5b5f918252602090912001546001600160a01b03169150829050565b6001600160a01b0381165f9081526002602090815260409182902080548351818402810184019094528084526060939283018282801561021e57602002820191905f5260205f209081546001600160a01b031681526001909101906020018083116102005750505050509050919050565b5f6001600160a01b03871661032b5760405162461bcd60e51b815260206004820152601860248201527f496e76616c69642070726f76696465722061646472657373000000000000000060448201526064015b60405180910390fd5b6001600160a01b0386166103815760405162461bcd60e51b815260206004820152601760248201527f496e76616c6964206172626974657220616464726573730000000000000000006044820152606401610322565b836103ce5760405162461bcd60e51b815260206004820152601f60248201527f4174206c65617374206f6e65206d696c6573746f6e65207265717569726564006044820152606401610322565b8382146104165760405162461bcd60e51b8152602060048201526016602482015275082e4e4c2f2e640d8cadccee8d040dad2e6dac2e8c6d60531b6044820152606401610322565b5f805b838110156104b6575f8585838181106104345761043461094c565b90506020020135116104885760405162461bcd60e51b815260206004820152601c60248201527f4d696c6573746f6e6520616d6f756e74206d757374206265203e2030000000006044820152606401610322565b84848281811061049a5761049a61094c565b90506020020135826104ac9190610960565b9150600101610419565b508034146105065760405162461bcd60e51b815260206004820152601860248201527f496e636f7272656374206465706f73697420616d6f756e7400000000000000006044820152606401610322565b5f3389898989898960405161051a906107a2565b61052a97969594939291906109dd565b604051809103905ff080158015610543573d5f5f3e3d5ffd5b5090505f81908060018154018082558091505060019003905f5260205f20015f9091909190916101000a8154816001600160a01b0302191690836001600160a01b0316021790555060015f336001600160a01b03166001600160a01b031681526020019081526020015f2081908060018154018082558091505060019003905f5260205f20015f9091909190916101000a8154816001600160a01b0302191690836001600160a01b0316021790555060025f8a6001600160a01b03166001600160a01b031681526020019081526020015f2081908060018154018082558091505060019003905f5260205f20015f9091909190916101000a8154816001600160a01b0302191690836001600160a01b031602179055505f816001600160a01b0316346040515f6040518083038185875af1925050503d805f81146106a2576040519150601f19603f3d011682016040523d82523d5f602084013e6106a7565b606091505b50509050806106f85760405162461bcd60e51b815260206004820152601960248201527f5472616e7366657220746f20657363726f77206661696c6564000000000000006044820152606401610322565b816001600160a01b03168a6001600160a01b0316336001600160a01b03167f671adea16beb39688732c7b0436ea11ce75527f0ad1e1d933b71d717fd67a1ba8660405161074791815260200190565b60405180910390a45098975050505050505050565b6002602052815f5260405f208181548110610243575f80fd5b5f5f82815481106107885761078861094c565b5f918252602090912001546001600160a01b031692915050565b611e1b80610ab583390190565b5f602082840312156107bf575f5ffd5b5035919050565b80356001600160a01b03811681146107dc575f5ffd5b919050565b5f602082840312156107f1575f5ffd5b6107fa826107c6565b9392505050565b602080825282518282018190525f918401906040840190835b818110156108415783516001600160a01b031683526020938401939092019160010161081a565b509095945050505050565b5f5f6040838503121561085d575f5ffd5b610866836107c6565b946020939093013593505050565b5f5f83601f840112610884575f5ffd5b50813567ffffffffffffffff81111561089b575f5ffd5b6020830191508360208260051b85010111156108b5575f5ffd5b9250929050565b5f5f5f5f5f5f608087890312156108d1575f5ffd5b6108da876107c6565b95506108e8602088016107c6565b9450604087013567ffffffffffffffff811115610903575f5ffd5b61090f89828a01610874565b909550935050606087013567ffffffffffffffff81111561092e575f5ffd5b61093a89828a01610874565b979a9699509497509295939492505050565b634e487b7160e01b5f52603260045260245ffd5b8082018082111561097f57634e487b7160e01b5f52601160045260245ffd5b92915050565b81835281816020850137505f828201602090810191909152601f909101601f19169091010190565b8183525f6001600160fb1b038311156109c4575f5ffd5b8260051b80836020870137939093016020019392505050565b6001600160a01b03888116825287811660208301528616604082015260a06060820181905281018490525f60c0600586901b830181019083018783601e1936839003015b89821015610a8f5786850360bf190184528235818112610a3f575f5ffd5b8b0160208101903567ffffffffffffffff811115610a5b575f5ffd5b803603821315610a69575f5ffd5b610a74878284610985565b96505050602083019250602084019350600182019150610a21565b505050508281036080840152610aa68185876109ad565b9a995050505050505050505056fe608060405234801561000f575f5ffd5b50604051611e1b380380611e1b83398101604081905261002e916104ea565b60017f9b779b17422d0df92223018b32b4d1fa46e071723d6817e2486d003becc55f00556001600160a01b03851661009e5760405162461bcd60e51b815260206004820152600e60248201526d125b9d985b1a590818db1a595b9d60921b60448201526064015b60405180910390fd5b6001600160a01b0384166100e75760405162461bcd60e51b815260206004820152601060248201526f24b73b30b634b210383937bb34b232b960811b6044820152606401610095565b6001600160a01b03831661012f5760405162461bcd60e51b815260206004820152600f60248201526e24b73b30b634b21030b93134ba32b960891b6044820152606401610095565b80518251146101805760405162461bcd60e51b815260206004820152601560248201527f4172726179206c656e677468206d69736d6174636800000000000000000000006044820152606401610095565b600180546001600160a01b038088166001600160a01b0319928316179092556002805487841690831617905560038054928616929091169190911790556101e77f43023f179164d629e1d761fb32e2db4dbd5ce417a23159d7da9cc7b56268928586610356565b506102127f4a3debffbb5bc5d4c738c3d8b74da2daa7589500e8c18ed2d6a9a12a34a3116185610356565b5061023d7f3b66fa69d5449cc9c6347ae0fdf5aeced2fda09de11c5ea65ee7ce7215d19b4084610356565b506102485f86610356565b505f5b825181101561034b576007604051806060016040528085848151811061027357610273610654565b6020026020010151815260200184848151811061029257610292610654565b602002602001015181526020015f60058111156102b1576102b1610668565b905281546001810183555f928352602090922081519192600302019081906102d99082610700565b50602082015181600101556040820151816002015f6101000a81548160ff0219169083600581111561030d5761030d610668565b0217905550505081818151811061032657610326610654565b602002602001015160045f82825461033e91906107ba565b909155505060010161024b565b5050505050506107d9565b5f828152602081815260408083206001600160a01b038516845290915281205460ff166103f6575f838152602081815260408083206001600160a01b03861684529091529020805460ff191660011790556103ae3390565b6001600160a01b0316826001600160a01b0316847f2f8788117e7eff1d82e926ec794901d17c78024a50270940304540a733656f0d60405160405180910390a45060016103f9565b505f5b92915050565b80516001600160a01b0381168114610415575f5ffd5b919050565b634e487b7160e01b5f52604160045260245ffd5b604051601f8201601f191681016001600160401b03811182821017156104565761045661041a565b604052919050565b5f6001600160401b038211156104765761047661041a565b5060051b60200190565b5f82601f83011261048f575f5ffd5b81516104a261049d8261045e565b61042e565b8082825260208201915060208360051b8601019250858311156104c3575f5ffd5b602085015b838110156104e05780518352602092830192016104c8565b5095945050505050565b5f5f5f5f5f60a086880312156104fe575f5ffd5b610507866103ff565b9450610515602087016103ff565b9350610523604087016103ff565b60608701519093506001600160401b0381111561053e575f5ffd5b8601601f8101881361054e575f5ffd5b805161055c61049d8261045e565b8082825260208201915060208360051b85010192508a83111561057d575f5ffd5b602084015b8381101561061b5780516001600160401b0381111561059f575f5ffd5b8501603f81018d136105af575f5ffd5b60208101516001600160401b038111156105cb576105cb61041a565b6105de601f8201601f191660200161042e565b8181526040838301018f10156105f2575f5ffd5b8160408401602083015e5f60208383010152808652505050602083019250602081019050610582565b5060808a0151909550925050506001600160401b0381111561063b575f5ffd5b61064788828901610480565b9150509295509295909350565b634e487b7160e01b5f52603260045260245ffd5b634e487b7160e01b5f52602160045260245ffd5b600181811c9082168061069057607f821691505b6020821081036106ae57634e487b7160e01b5f52602260045260245ffd5b50919050565b601f8211156106fb57805f5260205f20601f840160051c810160208510156106d95750805b601f840160051c820191505b818110156106f8575f81556001016106e5565b50505b505050565b81516001600160401b038111156107195761071961041a565b61072d81610727845461067c565b846106b4565b6020601f82116001811461075f575f83156107485750848201515b5f19600385901b1c1916600184901b1784556106f8565b5f84815260208120601f198516915b8281101561078e578785015182556020948501946001909201910161076e565b50848210156107ab57868401515f19600387901b60f8161c191681555b50505050600190811b01905550565b808201808211156103f957634e487b7160e01b5f52601160045260245ffd5b611635806107e65f395ff3fe608060405260043610610198575f3560e01c8063629e4ed0116100e7578063c438b40f11610087578063eae6f65211610062578063eae6f65214610527578063ee9a54321461055a578063fe25e00a14610579578063ff3a9c7e14610598575f5ffd5b8063c438b40f146104bb578063d547741f146104da578063e89e4ed6146104f9575f5ffd5b80639c17e439116100c25780639c17e4391461044b578063a217fddf1461046a578063a5c1674e1461047d578063b5326abc1461049c575f5ffd5b8063629e4ed0146103f257806391d148541461041357806392c5466d14610432575f5ffd5b8063248a9ca31161015257806336568abe1161012d57806336568abe1461036c57806345d30a171461038b5780634d104adf146103a057806356137f24146103d3575f5ffd5b8063248a9ca3146102ff57806324c20a341461032d5780632f2ff15d1461034d575f5ffd5b806301ffc9a71461022c578063085d4883146102605780630b49351c14610297578063109e94cf146102b55780631a39d8ef146102d457806324600fc3146102e9575f5ffd5b366102285760045434146101f35760405162461bcd60e51b815260206004820152601860248201527f496e636f7272656374206465706f73697420616d6f756e74000000000000000060448201526064015b60405180910390fd5b6040513481527fa1ab46d0e38f33a7b1f03853088a305927deb55c906370ff5d6d2bc732f150959060200160405180910390a1005b5f5ffd5b348015610237575f5ffd5b5061024b610246366004611378565b6105fb565b60405190151581526020015b60405180910390f35b34801561026b575f5ffd5b5060025461027f906001600160a01b031681565b6040516001600160a01b039091168152602001610257565b3480156102a2575f5ffd5b506007545b604051908152602001610257565b3480156102c0575f5ffd5b5060015461027f906001600160a01b031681565b3480156102df575f5ffd5b506102a760045481565b3480156102f4575f5ffd5b506102fd610631565b005b34801561030a575f5ffd5b506102a76103193660046113a6565b5f9081526020819052604090206001015490565b348015610338575f5ffd5b506102a75f5160206115c05f395f51905f5281565b348015610358575f5ffd5b506102fd6103673660046113d8565b610858565b348015610377575f5ffd5b506102fd6103863660046113d8565b610882565b348015610396575f5ffd5b506102a760055481565b3480156103ab575f5ffd5b506102a77f3b66fa69d5449cc9c6347ae0fdf5aeced2fda09de11c5ea65ee7ce7215d19b4081565b3480156103de575f5ffd5b506102fd6103ed3660046113a6565b6108ba565b3480156103fd575f5ffd5b506104066109d4565b6040516102579190611464565b34801561041e575f5ffd5b5061024b61042d3660046113d8565b610afc565b34801561043d575f5ffd5b5060065461024b9060ff1681565b348015610456575f5ffd5b506102fd6104653660046114f2565b610b24565b348015610475575f5ffd5b506102a75f81565b348015610488575f5ffd5b506102fd6104973660046113a6565b610cd6565b3480156104a7575f5ffd5b506102fd6104b63660046113a6565b610dc0565b3480156104c6575f5ffd5b506102fd6104d53660046113a6565b610ec6565b3480156104e5575f5ffd5b506102fd6104f43660046113d8565b611004565b348015610504575f5ffd5b506105186105133660046113a6565b611028565b60405161025793929190611525565b348015610532575f5ffd5b506102a77f43023f179164d629e1d761fb32e2db4dbd5ce417a23159d7da9cc7b56268928581565b348015610565575f5ffd5b506102fd6105743660046113a6565b6110e7565b348015610584575f5ffd5b5060035461027f906001600160a01b031681565b3480156105a3575f5ffd5b50600154600254600354600454600554600654604080516001600160a01b039788168152958716602087015295909316948401949094526060830152608082019290925260ff909116151560a082015260c001610257565b5f6001600160e01b03198216637965db0b60e01b148061062b57506301ffc9a760e01b6001600160e01b03198316145b92915050565b5f5160206115c05f395f51905f52610648816111ed565b6106506111f7565b60065460ff161561067457604051637c9d2ba760e01b815260040160405180910390fd5b5f805b6007548110156107415760026007828154811061069657610696611554565b5f91825260209091206002600390920201015460ff1660058111156106bd576106bd611430565b0361073957600781815481106106d5576106d5611554565b905f5260205f20906003020160010154826106f09190611568565b915060056007828154811061070757610707611554565b5f9182526020909120600260039092020101805460ff1916600183600581111561073357610733611430565b02179055505b600101610677565b50805f0361076257604051631e9acf1760e31b815260040160405180910390fd5b4781111561078357604051631e9acf1760e31b815260040160405180910390fd5b8060055f8282546107949190611568565b90915550506002546040515f916001600160a01b03169083908381818185875af1925050503d805f81146107e3576040519150601f19603f3d011682016040523d82523d5f602084013e6107e8565b606091505b505090508061080a576040516312171d8360e31b815260040160405180910390fd5b6040518281527f4a37b25aab49761ecf63117fe82b98d750917451133cf797507bc9fb5b96044a9060200160405180910390a1505061085560015f5160206115e05f395f51905f5255565b50565b5f82815260208190526040902060010154610872816111ed565b61087c8383611212565b50505050565b6001600160a01b03811633146108ab5760405163334bd91960e11b815260040160405180910390fd5b6108b582826112a1565b505050565b7f43023f179164d629e1d761fb32e2db4dbd5ce417a23159d7da9cc7b5626892856108e4816111ed565b60075482106109065760405163fdf4d87360e01b815260040160405180910390fd5b60016007838154811061091b5761091b611554565b5f91825260209091206002600390920201015460ff16600581111561094257610942611430565b14610960576040516333abec1960e01b815260040160405180910390fd5b60036007838154811061097557610975611554565b5f9182526020909120600260039092020101805460ff191660018360058111156109a1576109a1611430565b021790555060405182907fa5297c35c73f1b522f16299eecfdf723433bebba6ed6909c3b81250bd64c8d68905f90a25050565b60606007805480602002602001604051908101604052809291908181526020015f905b82821015610af3578382905f5260205f2090600302016040518060600160405290815f82018054610a2790611587565b80601f0160208091040260200160405190810160405280929190818152602001828054610a5390611587565b8015610a9e5780601f10610a7557610100808354040283529160200191610a9e565b820191905f5260205f20905b815481529060010190602001808311610a8157829003601f168201915b505050918352505060018201546020820152600282015460409091019060ff166005811115610acf57610acf611430565b6005811115610ae057610ae0611430565b81525050815260200190600101906109f7565b50505050905090565b5f918252602082815260408084206001600160a01b0393909316845291905290205460ff1690565b7f3b66fa69d5449cc9c6347ae0fdf5aeced2fda09de11c5ea65ee7ce7215d19b40610b4e816111ed565b610b566111f7565b6007548410610b785760405163fdf4d87360e01b815260040160405180910390fd5b60065460ff16610b9b576040516333abec1960e01b815260040160405180910390fd5b47821115610bbc57604051631e9acf1760e31b815260040160405180910390fd5b6006805460ff19169055600780546005919086908110610bde57610bde611554565b5f9182526020909120600260039092020101805460ff19166001836005811115610c0a57610c0a611430565b02179055505f836001600160a01b0316836040515f6040518083038185875af1925050503d805f8114610c58576040519150601f19603f3d011682016040523d82523d5f602084013e610c5d565b606091505b5050905080610c7f576040516312171d8360e31b815260040160405180910390fd5b8260055f828254610c909190611568565b909155505060405185907f57cce005d496355471bb5269f1dea3d6c81b6ac14c1d74ba28aefb022357013b905f90a25061087c60015f5160206115e05f395f51905f5255565b6001546001600160a01b03163314801590610cfc57506002546001600160a01b03163314155b15610d19576040516282b42960e81b815260040160405180910390fd5b6007548110610d3b5760405163fdf4d87360e01b815260040160405180910390fd5b6006805460ff19166001179055600780546004919083908110610d6057610d60611554565b5f9182526020909120600260039092020101805460ff19166001836005811115610d8c57610d8c611430565b0217905550604051339082907f84a477df8a28a4276ca6dee4458a06c3015f30c477d9c949ede4e13ff8a552b4905f90a350565b5f5160206115c05f395f51905f52610dd7816111ed565b6007548210610df95760405163fdf4d87360e01b815260040160405180910390fd5b600360078381548110610e0e57610e0e611554565b5f91825260209091206002600390920201015460ff166005811115610e3557610e35611430565b14610e53576040516333abec1960e01b815260040160405180910390fd5b5f60078381548110610e6757610e67611554565b5f9182526020909120600260039092020101805460ff19166001836005811115610e9357610e93611430565b021790555060405182907fc1f9aa4ad257456071defdb664dff681b9a1221a3aaf3dc91ceda4ac17307bd4905f90a25050565b7f43023f179164d629e1d761fb32e2db4dbd5ce417a23159d7da9cc7b562689285610ef0816111ed565b60065460ff1615610f1457604051637c9d2ba760e01b815260040160405180910390fd5b6007548210610f365760405163fdf4d87360e01b815260040160405180910390fd5b600160078381548110610f4b57610f4b611554565b5f91825260209091206002600390920201015460ff166005811115610f7257610f72611430565b14610f90576040516333abec1960e01b815260040160405180910390fd5b600260078381548110610fa557610fa5611554565b5f9182526020909120600260039092020101805460ff19166001836005811115610fd157610fd1611430565b021790555060405182907f0adffe31a62a9e7e5068bdd6f839470d57dd0e18fac8a8d525196283eb9b392a905f90a25050565b5f8281526020819052604090206001015461101e816111ed565b61087c83836112a1565b60078181548110611037575f80fd5b905f5260205f2090600302015f91509050805f01805461105690611587565b80601f016020809104026020016040519081016040528092919081815260200182805461108290611587565b80156110cd5780601f106110a4576101008083540402835291602001916110cd565b820191905f5260205f20905b8154815290600101906020018083116110b057829003601f168201915b50505050600183015460029093015491929160ff16905083565b5f5160206115c05f395f51905f526110fe816111ed565b60075482106111205760405163fdf4d87360e01b815260040160405180910390fd5b5f6007838154811061113457611134611554565b5f91825260209091206002600390920201015460ff16600581111561115b5761115b611430565b14611179576040516333abec1960e01b815260040160405180910390fd5b60016007838154811061118e5761118e611554565b5f9182526020909120600260039092020101805460ff191660018360058111156111ba576111ba611430565b021790555060405182907f6670b87ece4bf5ff8e422301a14d59d43b4f9d17c2f96c6c37ca8a073efda7f5905f90a25050565b610855813361130a565b6111ff611347565b60025f5160206115e05f395f51905f5255565b5f61121d8383610afc565b61129a575f838152602081815260408083206001600160a01b03861684529091529020805460ff191660011790556112523390565b6001600160a01b0316826001600160a01b0316847f2f8788117e7eff1d82e926ec794901d17c78024a50270940304540a733656f0d60405160405180910390a450600161062b565b505f61062b565b5f6112ac8383610afc565b1561129a575f838152602081815260408083206001600160a01b0386168085529252808320805460ff1916905551339286917ff6391f5c32d9c69d2a47ea670b442974b53935d1edc7fd64eb21e047a839171b9190a450600161062b565b6113148282610afc565b6113435760405163e2517d3f60e01b81526001600160a01b0382166004820152602481018390526044016101ea565b5050565b5f5160206115e05f395f51905f525460020361137657604051633ee5aeb560e01b815260040160405180910390fd5b565b5f60208284031215611388575f5ffd5b81356001600160e01b03198116811461139f575f5ffd5b9392505050565b5f602082840312156113b6575f5ffd5b5035919050565b80356001600160a01b03811681146113d3575f5ffd5b919050565b5f5f604083850312156113e9575f5ffd5b823591506113f9602084016113bd565b90509250929050565b5f81518084528060208401602086015e5f602082860101526020601f19601f83011685010191505092915050565b634e487b7160e01b5f52602160045260245ffd5b6006811061146057634e487b7160e01b5f52602160045260245ffd5b9052565b5f602082016020835280845180835260408501915060408160051b8601019250602086015f5b828110156114e657603f1987860301845281518051606087526114b06060880182611402565b905060208201516020880152604082015191506114d06040880183611444565b955050602093840193919091019060010161148a565b50929695505050505050565b5f5f5f60608486031215611504575f5ffd5b83359250611514602085016113bd565b929592945050506040919091013590565b606081525f6115376060830186611402565b905083602083015261154c6040830184611444565b949350505050565b634e487b7160e01b5f52603260045260245ffd5b8082018082111561062b57634e487b7160e01b5f52601160045260245ffd5b600181811c9082168061159b57607f821691505b6020821081036115b957634e487b7160e01b5f52602260045260245ffd5b5091905056fe4a3debffbb5bc5d4c738c3d8b74da2daa7589500e8c18ed2d6a9a12a34a311619b779b17422d0df92223018b32b4d1fa46e071723d6817e2486d003becc55f00a2646970667358221220528f5902f5a1f05d62ce4e4a14db8b43a607f9c2139a0444ab7d11d71da9fc2a64736f6c634300081c0033a26469706673582212209ba9cb270ba2637436cda9984833b0a54693de7b4675e7f1985d16c5e0640cfc64736f6c634300081c0033",
  "linkReferences": {},
  "deployedLinkReferences": {},
  "immutableReferences": {},
  "inputSourceName": "project/contracts/ProjectFactory.sol",
  "buildInfoId": "solc-0_8_28-b6c75735e7ec7c45efcc11633079cc0d96c4b57f"
}